{
  "abi": [
    {
      "inputs": [
        {
          "internalType": "uint256",
          "name": "_poolID",
          "type": "uint256"
        },
        {
          "internalType": "address",
          "name": "_organization",
          "type": "address"
        },
        {
          "internalType": "address",
          "name": "_lendingPool",
          "type": "address"
        },
        {
          "internalType": "uint256",
          "name": "_timeToClose",
          "type": "uint256"
        },
        {
          "internalType": "uint256",
          "name": "_bondPeriod",
          "type": "uint256"
        },
        {
          "internalType": "string",
          "name": "_baseURI",
          "type": "string"
        },
        {
          "internalType": "string",
          "name": "_postFixURI",
          "type": "string"
        },
        {
          "internalType": "uint256",
          "name": "_numNFTs",
          "type": "uint256"
        }
      ],
      "stateMutability": "nonpayable",
      "type": "constructor"
    },
    {
      "anonymous": false,
      "inputs": [
        {
          "indexed": false,
          "internalType": "address",
          "name": "user",
          "type": "address"
        },
        {
          "indexed": false,
          "internalType": "address",
          "name": "asset",
          "type": "address"
        },
        {
          "indexed": false,
          "internalType": "address",
          "name": "lpAsset",
          "type": "address"
        },
        {
          "indexed": false,
          "internalType": "uint256",
          "name": "amount",
          "type": "uint256"
        }
      ],
      "name": "DepositMade",
      "type": "event"
    },
    {
      "anonymous": false,
      "inputs": [
        {
          "indexed": false,
          "internalType": "address",
          "name": "user",
          "type": "address"
        },
        {
          "indexed": false,
          "internalType": "address",
          "name": "asset",
          "type": "address"
        },
        {
          "indexed": false,
          "internalType": "address",
          "name": "lpAsset",
          "type": "address"
        },
        {
          "indexed": false,
          "internalType": "uint256",
          "name": "amount",
          "type": "uint256"
        }
      ],
      "name": "UserWithdrawMade",
      "type": "event"
    },
    {
      "anonymous": false,
      "inputs": [
        {
          "indexed": false,
          "internalType": "address",
          "name": "asset",
          "type": "address"
        },
        {
          "indexed": false,
          "internalType": "uint256",
          "name": "amount",
          "type": "uint256"
        }
      ],
      "name": "WithdrawToPool",
      "type": "event"
    },
    {
      "inputs": [
        {
          "internalType": "address",
          "name": "asset",
          "type": "address"
        },
        {
          "internalType": "uint256",
          "name": "amount",
          "type": "uint256"
        }
      ],
      "name": "approve",
      "outputs": [],
      "stateMutability": "nonpayable",
      "type": "function"
    },
    {
      "inputs": [
        {
          "internalType": "address",
          "name": "lpAsset",
          "type": "address"
        },
        {
          "internalType": "uint256",
          "name": "neib",
          "type": "uint256"
        },
        {
          "internalType": "uint256",
          "name": "shares",
          "type": "uint256"
        }
      ],
      "name": "calculateInterest",
      "outputs": [
        {
          "internalType": "uint256",
          "name": "",
          "type": "uint256"
        }
      ],
      "stateMutability": "view",
      "type": "function"
    },
    {
      "inputs": [
        {
          "internalType": "address",
          "name": "asset",
          "type": "address"
        },
        {
          "internalType": "address",
          "name": "lpAsset",
          "type": "address"
        },
        {
          "internalType": "uint256",
          "name": "amount",
          "type": "uint256"
        }
      ],
      "name": "deposit",
      "outputs": [],
      "stateMutability": "nonpayable",
      "type": "function"
    },
    {
      "inputs": [],
      "name": "freeMintNFTContract",
      "outputs": [
        {
          "internalType": "contract FreeMintNFT",
          "name": "",
          "type": "address"
        }
      ],
      "stateMutability": "view",
      "type": "function"
    },
    {
      "inputs": [
        {
          "internalType": "address",
          "name": "asset",
          "type": "address"
        },
        {
          "internalType": "address",
          "name": "user",
          "type": "address"
        }
      ],
      "name": "getBalance",
      "outputs": [
        {
          "internalType": "uint256",
          "name": "",
          "type": "uint256"
        }
      ],
      "stateMutability": "view",
      "type": "function"
    },
    {
      "inputs": [],
      "name": "getCloseTime",
      "outputs": [
        {
          "internalType": "uint256",
          "name": "",
          "type": "uint256"
        }
      ],
      "stateMutability": "view",
      "type": "function"
    },
    {
      "inputs": [],
      "name": "getEndBondingPeriod",
      "outputs": [
        {
          "internalType": "uint256",
          "name": "",
          "type": "uint256"
        }
      ],
      "stateMutability": "view",
      "type": "function"
    },
    {
      "inputs": [],
      "name": "getID",
      "outputs": [
        {
          "internalType": "uint256",
          "name": "",
          "type": "uint256"
        }
      ],
      "stateMutability": "view",
      "type": "function"
    },
    {
      "inputs": [],
      "name": "getState",
      "outputs": [
        {
          "internalType": "uint256",
          "name": "",
          "type": "uint256"
        }
      ],
      "stateMutability": "view",
      "type": "function"
    },
    {
      "inputs": [
        {
          "internalType": "address",
          "name": "asset",
          "type": "address"
        }
      ],
      "name": "getTotalBalance",
      "outputs": [
        {
          "internalType": "uint256",
          "name": "",
          "type": "uint256"
        }
      ],
      "stateMutability": "view",
      "type": "function"
    },
    {
      "inputs": [],
      "name": "lendingPool",
      "outputs": [
        {
          "internalType": "address",
          "name": "",
          "type": "address"
        }
      ],
      "stateMutability": "view",
      "type": "function"
    },
    {
      "inputs": [],
      "name": "organization",
      "outputs": [
        {
          "internalType": "address",
          "name": "",
          "type": "address"
        }
      ],
      "stateMutability": "view",
      "type": "function"
    },
    {
      "inputs": [
        {
          "internalType": "address",
          "name": "",
          "type": "address"
        }
      ],
      "name": "totalShares",
      "outputs": [
        {
          "internalType": "uint256",
          "name": "",
          "type": "uint256"
        }
      ],
      "stateMutability": "view",
      "type": "function"
    },
    {
      "inputs": [
        {
          "internalType": "address",
          "name": "",
          "type": "address"
        }
      ],
      "name": "totalSharesFinalized",
      "outputs": [
        {
          "internalType": "uint256",
          "name": "",
          "type": "uint256"
        }
      ],
      "stateMutability": "view",
      "type": "function"
    },
    {
      "inputs": [
        {
          "internalType": "address",
          "name": "asset",
          "type": "address"
        },
        {
          "internalType": "uint256",
          "name": "amount",
          "type": "uint256"
        }
      ],
      "name": "transfer",
      "outputs": [],
      "stateMutability": "nonpayable",
      "type": "function"
    },
    {
      "inputs": [
        {
          "internalType": "uint256",
          "name": "userShares",
          "type": "uint256"
        },
        {
          "internalType": "uint256",
          "name": "totalSharesForAsset",
          "type": "uint256"
        }
      ],
      "name": "userRaffle",
      "outputs": [
        {
          "internalType": "uint256[]",
          "name": "",
          "type": "uint256[]"
        }
      ],
      "stateMutability": "nonpayable",
      "type": "function"
    },
    {
      "inputs": [
        {
          "internalType": "uint256",
          "name": "",
          "type": "uint256"
        }
      ],
      "name": "users",
      "outputs": [
        {
          "internalType": "address",
          "name": "",
          "type": "address"
        }
      ],
      "stateMutability": "view",
      "type": "function"
    },
    {
      "inputs": [
        {
          "internalType": "address",
          "name": "asset",
          "type": "address"
        },
        {
          "internalType": "address",
          "name": "lpAsset",
          "type": "address"
        }
      ],
      "name": "withdraw",
      "outputs": [
        {
          "internalType": "uint256[]",
          "name": "tokenIds",
          "type": "uint256[]"
        }
      ],
      "stateMutability": "nonpayable",
      "type": "function"
    }
  ],
  "bytecode": {
    "object": "0x60806040526003805460ff1916905564e8d4a51000600b553480156200002457600080fd5b50604051620042a9380380620042a98339810160408190526200004791620002cb565b6000889055600980546001600160a01b03808a166001600160a01b031992831617909255600a80549289169290911691909117905562000088854262000383565b60018190556200009a90859062000383565b6002558251620000b290600d9060208601906200012d565b508151620000c890600e9060208501906200012d565b5080604051620000d890620001bc565b908152602001604051809103906000f080158015620000fb573d6000803e3d6000fd5b50600c80546001600160a01b0319166001600160a01b0392909216919091179055600f5550620003e695505050505050565b8280546200013b90620003aa565b90600052602060002090601f0160209004810192826200015f5760008555620001aa565b82601f106200017a57805160ff1916838001178555620001aa565b82800160010185558215620001aa579182015b82811115620001aa5782518255916020019190600101906200018d565b50620001b8929150620001ca565b5090565b6124c68062001de383390190565b5b80821115620001b85760008155600101620001cb565b80516001600160a01b0381168114620001f957600080fd5b919050565b634e487b7160e01b600052604160045260246000fd5b600082601f8301126200022657600080fd5b81516001600160401b0380821115620002435762000243620001fe565b604051601f8301601f19908116603f011681019082821181831017156200026e576200026e620001fe565b816040528381526020925086838588010111156200028b57600080fd5b600091505b83821015620002af578582018301518183018401529082019062000290565b83821115620002c15760008385830101525b9695505050505050565b600080600080600080600080610100898b031215620002e957600080fd5b88519750620002fb60208a01620001e1565b96506200030b60408a01620001e1565b60608a015160808b015160a08c015192985090965094506001600160401b03808211156200033857600080fd5b620003468c838d0162000214565b945060c08b01519150808211156200035d57600080fd5b506200036c8b828c0162000214565b92505060e089015190509295985092959890939650565b60008219821115620003a557634e487b7160e01b600052601160045260246000fd5b500190565b600181811c90821680620003bf57607f821691505b602082108103620003e057634e487b7160e01b600052602260045260246000fd5b50919050565b6119ed80620003f66000396000f3fe608060405234801561001057600080fd5b50600436106101365760003560e01c8063a59a9973116100b2578063c9a80a1111610081578063d4fac45d11610066578063d4fac45d146102bf578063f940e385146102d2578063fadeaf76146102e557600080fd5b8063c9a80a1114610299578063d3d38193146102ac57600080fd5b8063a59a99731461023e578063a9059cbb1461025e578063ab9dbd0714610271578063bf6b874e1461027957600080fd5b806339748285116101095780634cb5034d116100ee5780634cb5034d146102035780638340f5491461020b5780639cb75d9d1461021e57600080fd5b806339748285146101c357806346162155146101e357600080fd5b8063095ea7b31461013b5780631865c57d1461015057806323bd4d7a1461016b578063365b98b2146101b0575b600080fd5b61014e61014936600461153e565b6102ed565b005b6101586103b9565b6040519081526020015b60405180910390f35b60095461018b9073ffffffffffffffffffffffffffffffffffffffff1681565b60405173ffffffffffffffffffffffffffffffffffffffff9091168152602001610162565b61018b6101be366004611568565b6103f8565b600c5461018b9073ffffffffffffffffffffffffffffffffffffffff1681565b6101586101f1366004611581565b60066020526000908152604090205481565b600254610158565b61014e61021936600461159c565b61042f565b61023161022c3660046115d8565b61085d565b60405161016291906115fa565b600a5461018b9073ffffffffffffffffffffffffffffffffffffffff1681565b61014e61026c36600461153e565b610a38565b600054610158565b610158610287366004611581565b60056020526000908152604090205481565b6101586102a736600461163e565b610abf565b6101586102ba366004611581565b610b84565b6101586102cd366004611671565b610c17565b6102316102e0366004611671565b610c7a565b600154610158565b60095473ffffffffffffffffffffffffffffffffffffffff163314610314576103146116a4565b6009546040517f095ea7b300000000000000000000000000000000000000000000000000000000815273ffffffffffffffffffffffffffffffffffffffff918216600482015260248101839052839182169063095ea7b3906044015b6020604051808303816000875af115801561038f573d6000803e3d6000fd5b505050506040513d601f19601f820116820180604052508101906103b391906116d3565b50505050565b60015460009042908110156103d057600091505090565b6002548110806103e3575060035460ff16155b156103f057600191505090565b600291505090565b6008818154811061040857600080fd5b60009182526020909120015473ffffffffffffffffffffffffffffffffffffffff16905081565b600154421061049f576040517f08c379a000000000000000000000000000000000000000000000000000000000815260206004820152601460248201527f54696d6520746f20636c6f73652070617373656400000000000000000000000060448201526064015b60405180910390fd5b73ffffffffffffffffffffffffffffffffffffffff821660009081526005602052604081205490036104db576104d68383836111af565b505050565b60006104e7838361146f565b33600090815260076020908152604080832073ffffffffffffffffffffffffffffffffffffffff8816845290915281208054600190910154929350909161052f918691610abf565b33600090815260076020908152604080832073ffffffffffffffffffffffffffffffffffffffff89168452909152812060010180549293508492909190610577908490611724565b909155505073ffffffffffffffffffffffffffffffffffffffff8416600090815260056020526040812080548492906105b1908490611724565b90915550506040517f23b872dd00000000000000000000000000000000000000000000000000000000815233600482015230602482015260448101849052859073ffffffffffffffffffffffffffffffffffffffff8216906323b872dd906064016020604051808303816000875af1158015610631573d6000803e3d6000fd5b505050506040513d601f19601f8201168201806040525081019061065591906116d3565b50600a546040517f095ea7b300000000000000000000000000000000000000000000000000000000815273ffffffffffffffffffffffffffffffffffffffff91821660048201819052602482018790529183169063095ea7b3906044016020604051808303816000875af11580156106d1573d6000803e3d6000fd5b505050506040513d601f19601f820116820180604052508101906106f591906116d3565b506040517fe8eda9df00000000000000000000000000000000000000000000000000000000815273ffffffffffffffffffffffffffffffffffffffff8881166004830152602482018790523060448301526000606483015282169063e8eda9df90608401600060405180830381600087803b15801561077357600080fd5b505af1158015610787573d6000803e3d6000fd5b505033600090815260076020908152604080832073ffffffffffffffffffffffffffffffffffffffff8c1684529091529020600101548592506107cc915088906114aa565b6107d6919061173c565b33600081815260076020908152604080832073ffffffffffffffffffffffffffffffffffffffff8c811680865291845293829020959095558051938452918b1690830152810191909152606081018690527fbe2d7a78cc1b5e2bfa97c379430571e5c9a49f6ae43f84624848e25157fb30cf9060800160405180910390a150505050505050565b60606000600f5461086e85856114e3565b610879906064611753565b6108839190611753565b90506000805b8281101561090d5760408051446020808301919091524282840152606080830185905283518084039091018152608090920190925280519101206000600f5460646108d49190611753565b6108de90836117bf565b9050600f548110156108f857836108f4816117d3565b9450505b50508080610905906117d3565b915050610889565b5060008167ffffffffffffffff8111156109295761092961180b565b604051908082528060200260200182016040528015610952578160200160208202803683370190505b50905060005b82811015610a2e57600c546040517fa3ee38ae00000000000000000000000000000000000000000000000000000000815273ffffffffffffffffffffffffffffffffffffffff9091169063a3ee38ae906109bc903390600d90600e90600401611910565b6020604051808303816000875af11580156109db573d6000803e3d6000fd5b505050506040513d601f19601f820116820180604052508101906109ff919061195b565b828281518110610a1157610a11611974565b602090810291909101015280610a26816117d3565b915050610958565b5095945050505050565b60095473ffffffffffffffffffffffffffffffffffffffff163314610a5f57610a5f6116a4565b6009546040517fa9059cbb00000000000000000000000000000000000000000000000000000000815273ffffffffffffffffffffffffffffffffffffffff918216600482015260248101839052839182169063a9059cbb90604401610370565b33600090815260076020908152604080832073ffffffffffffffffffffffffffffffffffffffff871684529091528120600101548103610b0157506000610b7d565b6000610b0d85846114aa565b33600090815260076020908152604080832073ffffffffffffffffffffffffffffffffffffffff8a16845290915281206001015491925090610b4f8587611753565b610b5991906119a3565b905080821015610b6e57600092505050610b7d565b610b78818361173c565b925050505b9392505050565b6040517f70a08231000000000000000000000000000000000000000000000000000000008152306004820152600090829073ffffffffffffffffffffffffffffffffffffffff8216906370a0823190602401602060405180830381865afa158015610bf3573d6000803e3d6000fd5b505050506040513d601f19601f82011682018060405250810190610b7d919061195b565b73ffffffffffffffffffffffffffffffffffffffff80831660008181526005602090815260408083205494861683526007825280832093835292905290812060010154909190610c6685610b84565b610c709190611753565b610b7d91906119a3565b6060600254421015610ce8576040517f08c379a000000000000000000000000000000000000000000000000000000000815260206004820152601860248201527f426f6e642074696d65206e6f7420636f6d706c657465642100000000000000006044820152606401610496565b60035460ff16600003610d5757610d5782600380547fffffffffffffffffffffffffffffffffffffffffffffffffffffffffffffff0016600117905573ffffffffffffffffffffffffffffffffffffffff16600090815260056020908152604080832054600690925290912055565b33600090815260076020908152604080832073ffffffffffffffffffffffffffffffffffffffff8616845290915281206001015490610d9684836114aa565b33600090815260076020908152604080832073ffffffffffffffffffffffffffffffffffffffff89168452909152902060010154909150821115610e36576040517f08c379a000000000000000000000000000000000000000000000000000000000815260206004820152601160248201527f4e6f7420656e6f75676820746f6b656e730000000000000000000000000000006044820152606401610496565b33600090815260076020908152604080832073ffffffffffffffffffffffffffffffffffffffff88168452909152812054610e7390869085610abf565b600a5490915073ffffffffffffffffffffffffffffffffffffffff16806369328dec88610ea0858761173c565b6040517fffffffff0000000000000000000000000000000000000000000000000000000060e085901b16815273ffffffffffffffffffffffffffffffffffffffff909216600483015260248201523360448201526064016020604051808303816000875af1158015610f16573d6000803e3d6000fd5b505050506040513d601f19601f82011682018060405250810190610f3a919061195b565b508115611031576040517f69328dec00000000000000000000000000000000000000000000000000000000815273ffffffffffffffffffffffffffffffffffffffff8881166004830152602482018490523060448301528216906369328dec906064016020604051808303816000875af1158015610fbc573d6000803e3d6000fd5b505050506040513d601f19601f82011682018060405250810190610fe0919061195b565b506040805173ffffffffffffffffffffffffffffffffffffffff89168152602081018490527f78f15fe2af54fa0eae112daf669c130019b6994786610149739cdb243e12d699910160405180910390a15b73ffffffffffffffffffffffffffffffffffffffff861660009081526006602052604090205461106290859061085d565b33600090815260076020908152604080832073ffffffffffffffffffffffffffffffffffffffff8b1684529091528120600101805492975086916110a6838561173c565b909155505033600090815260076020908152604080832073ffffffffffffffffffffffffffffffffffffffff8b16845290915290206001810154905482916110ed91611753565b6110f791906119a3565b33600090815260076020908152604080832073ffffffffffffffffffffffffffffffffffffffff8c16845282528083209390935560059052908120805487929061114290849061173c565b90915550506040805133815273ffffffffffffffffffffffffffffffffffffffff8a811660208301528916818301526060810186905290517fb72b689a7f29d5ed02de80fe6d136f62098f880252b1bd96baed43fb94bc7da29181900360800190a1505050505092915050565b6040517f23b872dd00000000000000000000000000000000000000000000000000000000815233600482015230602482015260448101829052839073ffffffffffffffffffffffffffffffffffffffff8216906323b872dd906064016020604051808303816000875af115801561122a573d6000803e3d6000fd5b505050506040513d601f19601f8201168201806040525081019061124e91906116d3565b50600a546040517f095ea7b300000000000000000000000000000000000000000000000000000000815273ffffffffffffffffffffffffffffffffffffffff91821660048201819052602482018590529183169063095ea7b3906044016020604051808303816000875af11580156112ca573d6000803e3d6000fd5b505050506040513d601f19601f820116820180604052508101906112ee91906116d3565b506040517fe8eda9df00000000000000000000000000000000000000000000000000000000815273ffffffffffffffffffffffffffffffffffffffff8681166004830152602482018590523060448301526000606483015282169063e8eda9df90608401600060405180830381600087803b15801561136c57600080fd5b505af1158015611380573d6000803e3d6000fd5b505033600081815260076020908152604080832073ffffffffffffffffffffffffffffffffffffffff8b811680865291845282852060018082018d9055908c90556008805491820190557ff3f7a9fe364faab93b216da50a3214154f22a0a2b415b23a84c8169e8b636ee30180547fffffffffffffffffffffffff0000000000000000000000000000000000000000168717905560058452938290208a90558151948552928b1691840191909152820152606081018690527fbe2d7a78cc1b5e2bfa97c379430571e5c9a49f6ae43f84624848e25157fb30cf9250608001905060405180910390a15050505050565b600061147a83610b84565b73ffffffffffffffffffffffffffffffffffffffff8416600090815260056020526040902054610c709084611753565b73ffffffffffffffffffffffffffffffffffffffff82166000908152600560205260408120546114d984610b84565b610c709084611753565b60006114ef82846117bf565b156114fb5760016114fe565b60005b60ff1661150b83856119a3565b610b7d9190611724565b803573ffffffffffffffffffffffffffffffffffffffff8116811461153957600080fd5b919050565b6000806040838503121561155157600080fd5b61155a83611515565b946020939093013593505050565b60006020828403121561157a57600080fd5b5035919050565b60006020828403121561159357600080fd5b610b7d82611515565b6000806000606084860312156115b157600080fd5b6115ba84611515565b92506115c860208501611515565b9150604084013590509250925092565b600080604083850312156115eb57600080fd5b50508035926020909101359150565b6020808252825182820181905260009190848201906040850190845b8181101561163257835183529284019291840191600101611616565b50909695505050505050565b60008060006060848603121561165357600080fd5b61165c84611515565b95602085013595506040909401359392505050565b6000806040838503121561168457600080fd5b61168d83611515565b915061169b60208401611515565b90509250929050565b7f4e487b7100000000000000000000000000000000000000000000000000000000600052600160045260246000fd5b6000602082840312156116e557600080fd5b81518015158114610b7d57600080fd5b7f4e487b7100000000000000000000000000000000000000000000000000000000600052601160045260246000fd5b60008219821115611737576117376116f5565b500190565b60008282101561174e5761174e6116f5565b500390565b6000817fffffffffffffffffffffffffffffffffffffffffffffffffffffffffffffffff048311821515161561178b5761178b6116f5565b500290565b7f4e487b7100000000000000000000000000000000000000000000000000000000600052601260045260246000fd5b6000826117ce576117ce611790565b500690565b60007fffffffffffffffffffffffffffffffffffffffffffffffffffffffffffffffff8203611804576118046116f5565b5060010190565b7f4e487b7100000000000000000000000000000000000000000000000000000000600052604160045260246000fd5b8054600090600181811c908083168061185457607f831692505b6020808410820361188e577f4e487b7100000000000000000000000000000000000000000000000000000000600052602260045260246000fd5b838852602088018280156118a957600181146118d857611903565b7fffffffffffffffffffffffffffffffffffffffffffffffffffffffffffffff00871682528282019750611903565b60008981526020902060005b878110156118fd578154848201529086019084016118e4565b83019850505b5050505050505092915050565b73ffffffffffffffffffffffffffffffffffffffff8416815260606020820152600061193f606083018561183a565b8281036040840152611951818561183a565b9695505050505050565b60006020828403121561196d57600080fd5b5051919050565b7f4e487b7100000000000000000000000000000000000000000000000000000000600052603260045260246000fd5b6000826119b2576119b2611790565b50049056fea2646970667358221220f9b301ccd9d603072a74afa10ca3b28ba47e099ca8383f63381a17462db1d4df64736f6c634300080d003360806040523480156200001157600080fd5b50604051620024c6380380620024c68339810160408190526200003491620001cc565b604080518082018252601381527f467265654d696e744e4654204578616d706c65000000000000000000000000006020808301918252835180850190945260038452622326a760e91b908401528151919291620000949160009162000126565b508051620000aa90600190602084019062000126565b505050620000c7620000c1620000d060201b60201c565b620000d4565b60095562000222565b3390565b600780546001600160a01b038381166001600160a01b0319831681179093556040519116919082907f8be0079c531659141344cd1fd0a4f28419497f9722a3daafe3b4186f6b6457e090600090a35050565b8280546200013490620001e6565b90600052602060002090601f016020900481019282620001585760008555620001a3565b82601f106200017357805160ff1916838001178555620001a3565b82800160010185558215620001a3579182015b82811115620001a357825182559160200191906001019062000186565b50620001b1929150620001b5565b5090565b5b80821115620001b15760008155600101620001b6565b600060208284031215620001df57600080fd5b5051919050565b600181811c90821680620001fb57607f821691505b6020821081036200021c57634e487b7160e01b600052602260045260246000fd5b50919050565b61229480620002326000396000f3fe608060405234801561001057600080fd5b506004361061011b5760003560e01c8063715018a6116100b2578063a3ee38ae11610081578063c87b56dd11610066578063c87b56dd1461026b578063e985e9c51461027e578063f2fde38b146102c757600080fd5b8063a3ee38ae14610245578063b88d4fde1461025857600080fd5b8063715018a6146102045780638da5cb5b1461020c57806395d89b411461022a578063a22cb4651461023257600080fd5b806323b872dd116100ee57806323b872dd146101aa57806342842e0e146101bd5780636352211e146101d057806370a08231146101e357600080fd5b806301ffc9a71461012057806306fdde0314610148578063081812fc1461015d578063095ea7b314610195575b600080fd5b61013361012e366004611c6c565b6102da565b60405190151581526020015b60405180910390f35b6101506103bf565b60405161013f9190611cff565b61017061016b366004611d12565b610451565b60405173ffffffffffffffffffffffffffffffffffffffff909116815260200161013f565b6101a86101a3366004611d54565b610530565b005b6101a86101b8366004611d7e565b6106bc565b6101a86101cb366004611d7e565b61075d565b6101706101de366004611d12565b610778565b6101f66101f1366004611dba565b61082a565b60405190815260200161013f565b6101a86108f8565b60075473ffffffffffffffffffffffffffffffffffffffff16610170565b610150610985565b6101a8610240366004611dd5565b610994565b6101f6610253366004611ef4565b6109a3565b6101a8610266366004611f68565b610a80565b610150610279366004611d12565b610b28565b61013361028c366004611fe4565b73ffffffffffffffffffffffffffffffffffffffff918216600090815260056020908152604080832093909416825291909152205460ff1690565b6101a86102d5366004611dba565b610ce1565b60007fffffffff0000000000000000000000000000000000000000000000000000000082167f80ac58cd00000000000000000000000000000000000000000000000000000000148061036d57507fffffffff0000000000000000000000000000000000000000000000000000000082167f5b5e139f00000000000000000000000000000000000000000000000000000000145b806103b957507f01ffc9a7000000000000000000000000000000000000000000000000000000007fffffffff000000000000000000000000000000000000000000000000000000008316145b92915050565b6060600080546103ce90612017565b80601f01602080910402602001604051908101604052809291908181526020018280546103fa90612017565b80156104475780601f1061041c57610100808354040283529160200191610447565b820191906000526020600020905b81548152906001019060200180831161042a57829003601f168201915b5050505050905090565b60008181526002602052604081205473ffffffffffffffffffffffffffffffffffffffff16610507576040517f08c379a000000000000000000000000000000000000000000000000000000000815260206004820152602c60248201527f4552433732313a20617070726f76656420717565727920666f72206e6f6e657860448201527f697374656e7420746f6b656e000000000000000000000000000000000000000060648201526084015b60405180910390fd5b5060009081526004602052604090205473ffffffffffffffffffffffffffffffffffffffff1690565b600061053b82610778565b90508073ffffffffffffffffffffffffffffffffffffffff168373ffffffffffffffffffffffffffffffffffffffff16036105f8576040517f08c379a000000000000000000000000000000000000000000000000000000000815260206004820152602160248201527f4552433732313a20617070726f76616c20746f2063757272656e74206f776e6560448201527f720000000000000000000000000000000000000000000000000000000000000060648201526084016104fe565b3373ffffffffffffffffffffffffffffffffffffffff821614806106215750610621813361028c565b6106ad576040517f08c379a000000000000000000000000000000000000000000000000000000000815260206004820152603860248201527f4552433732313a20617070726f76652063616c6c6572206973206e6f74206f7760448201527f6e6572206e6f7220617070726f76656420666f7220616c6c000000000000000060648201526084016104fe565b6106b78383610e11565b505050565b6106c63382610eb1565b610752576040517f08c379a000000000000000000000000000000000000000000000000000000000815260206004820152603160248201527f4552433732313a207472616e736665722063616c6c6572206973206e6f74206f60448201527f776e6572206e6f7220617070726f76656400000000000000000000000000000060648201526084016104fe565b6106b7838383611020565b6106b783838360405180602001604052806000815250610a80565b60008181526002602052604081205473ffffffffffffffffffffffffffffffffffffffff16806103b9576040517f08c379a000000000000000000000000000000000000000000000000000000000815260206004820152602960248201527f4552433732313a206f776e657220717565727920666f72206e6f6e657869737460448201527f656e7420746f6b656e000000000000000000000000000000000000000000000060648201526084016104fe565b600073ffffffffffffffffffffffffffffffffffffffff82166108cf576040517f08c379a000000000000000000000000000000000000000000000000000000000815260206004820152602a60248201527f4552433732313a2062616c616e636520717565727920666f7220746865207a6560448201527f726f20616464726573730000000000000000000000000000000000000000000060648201526084016104fe565b5073ffffffffffffffffffffffffffffffffffffffff1660009081526003602052604090205490565b60075473ffffffffffffffffffffffffffffffffffffffff163314610979576040517f08c379a000000000000000000000000000000000000000000000000000000000815260206004820181905260248201527f4f776e61626c653a2063616c6c6572206973206e6f7420746865206f776e657260448201526064016104fe565b6109836000611287565b565b6060600180546103ce90612017565b61099f3383836112fe565b5050565b60006009546109b160085490565b10610a18576040517f08c379a000000000000000000000000000000000000000000000000000000000815260206004820152601a60248201527f416c6c204e4654732068617665206265656e206d696e7465642100000000000060448201526064016104fe565b610a26600880546001019055565b6000610a3160085490565b9050610a3d858261142b565b600084610a49836115ed565b85604051602001610a5c9392919061206a565b6040516020818303038152906040529050610a778282611722565b50949350505050565b610a8a3383610eb1565b610b16576040517f08c379a000000000000000000000000000000000000000000000000000000000815260206004820152603160248201527f4552433732313a207472616e736665722063616c6c6572206973206e6f74206f60448201527f776e6572206e6f7220617070726f76656400000000000000000000000000000060648201526084016104fe565b610b22848484846117f2565b50505050565b60008181526002602052604090205460609073ffffffffffffffffffffffffffffffffffffffff16610bdc576040517f08c379a000000000000000000000000000000000000000000000000000000000815260206004820152603160248201527f45524337323155524953746f726167653a2055524920717565727920666f722060448201527f6e6f6e6578697374656e7420746f6b656e00000000000000000000000000000060648201526084016104fe565b60008281526006602052604081208054610bf590612017565b80601f0160208091040260200160405190810160405280929190818152602001828054610c2190612017565b8015610c6e5780601f10610c4357610100808354040283529160200191610c6e565b820191906000526020600020905b815481529060010190602001808311610c5157829003601f168201915b505050505090506000610c8c60408051602081019091526000815290565b90508051600003610c9e575092915050565b815115610cd0578082604051602001610cb89291906120ad565b60405160208183030381529060405292505050919050565b610cd984611895565b949350505050565b60075473ffffffffffffffffffffffffffffffffffffffff163314610d62576040517f08c379a000000000000000000000000000000000000000000000000000000000815260206004820181905260248201527f4f776e61626c653a2063616c6c6572206973206e6f7420746865206f776e657260448201526064016104fe565b73ffffffffffffffffffffffffffffffffffffffff8116610e05576040517f08c379a000000000000000000000000000000000000000000000000000000000815260206004820152602660248201527f4f776e61626c653a206e6577206f776e657220697320746865207a65726f206160448201527f646472657373000000000000000000000000000000000000000000000000000060648201526084016104fe565b610e0e81611287565b50565b600081815260046020526040902080547fffffffffffffffffffffffff00000000000000000000000000000000000000001673ffffffffffffffffffffffffffffffffffffffff84169081179091558190610e6b82610778565b73ffffffffffffffffffffffffffffffffffffffff167f8c5be1e5ebec7d5bd14f71427d1e84f3dd0314c0f7b2291e5b200ac8c7c3b92560405160405180910390a45050565b60008181526002602052604081205473ffffffffffffffffffffffffffffffffffffffff16610f62576040517f08c379a000000000000000000000000000000000000000000000000000000000815260206004820152602c60248201527f4552433732313a206f70657261746f7220717565727920666f72206e6f6e657860448201527f697374656e7420746f6b656e000000000000000000000000000000000000000060648201526084016104fe565b6000610f6d83610778565b90508073ffffffffffffffffffffffffffffffffffffffff168473ffffffffffffffffffffffffffffffffffffffff161480610fdb575073ffffffffffffffffffffffffffffffffffffffff80821660009081526005602090815260408083209388168352929052205460ff165b80610cd957508373ffffffffffffffffffffffffffffffffffffffff1661100184610451565b73ffffffffffffffffffffffffffffffffffffffff1614949350505050565b8273ffffffffffffffffffffffffffffffffffffffff1661104082610778565b73ffffffffffffffffffffffffffffffffffffffff16146110e3576040517f08c379a000000000000000000000000000000000000000000000000000000000815260206004820152602560248201527f4552433732313a207472616e736665722066726f6d20696e636f72726563742060448201527f6f776e657200000000000000000000000000000000000000000000000000000060648201526084016104fe565b73ffffffffffffffffffffffffffffffffffffffff8216611185576040517f08c379a0000000000000000000000000000000000000000000000000000000008152602060048201526024808201527f4552433732313a207472616e7366657220746f20746865207a65726f2061646460448201527f726573730000000000000000000000000000000000000000000000000000000060648201526084016104fe565b611190600082610e11565b73ffffffffffffffffffffffffffffffffffffffff831660009081526003602052604081208054600192906111c690849061210b565b909155505073ffffffffffffffffffffffffffffffffffffffff82166000908152600360205260408120805460019290611201908490612122565b909155505060008181526002602052604080822080547fffffffffffffffffffffffff00000000000000000000000000000000000000001673ffffffffffffffffffffffffffffffffffffffff86811691821790925591518493918716917fddf252ad1be2c89b69c2b068fc378daa952ba7f163c4a11628f55a4df523b3ef91a4505050565b6007805473ffffffffffffffffffffffffffffffffffffffff8381167fffffffffffffffffffffffff0000000000000000000000000000000000000000831681179093556040519116919082907f8be0079c531659141344cd1fd0a4f28419497f9722a3daafe3b4186f6b6457e090600090a35050565b8173ffffffffffffffffffffffffffffffffffffffff168373ffffffffffffffffffffffffffffffffffffffff1603611393576040517f08c379a000000000000000000000000000000000000000000000000000000000815260206004820152601960248201527f4552433732313a20617070726f766520746f2063616c6c65720000000000000060448201526064016104fe565b73ffffffffffffffffffffffffffffffffffffffff83811660008181526005602090815260408083209487168084529482529182902080547fffffffffffffffffffffffffffffffffffffffffffffffffffffffffffffff001686151590811790915591519182527f17307eab39ab6107e8899845ad3d59bd9653f200f220920489ca2b5937696c31910160405180910390a3505050565b73ffffffffffffffffffffffffffffffffffffffff82166114a8576040517f08c379a000000000000000000000000000000000000000000000000000000000815260206004820181905260248201527f4552433732313a206d696e7420746f20746865207a65726f206164647265737360448201526064016104fe565b60008181526002602052604090205473ffffffffffffffffffffffffffffffffffffffff1615611534576040517f08c379a000000000000000000000000000000000000000000000000000000000815260206004820152601c60248201527f4552433732313a20746f6b656e20616c7265616479206d696e7465640000000060448201526064016104fe565b73ffffffffffffffffffffffffffffffffffffffff8216600090815260036020526040812080546001929061156a908490612122565b909155505060008181526002602052604080822080547fffffffffffffffffffffffff00000000000000000000000000000000000000001673ffffffffffffffffffffffffffffffffffffffff861690811790915590518392907fddf252ad1be2c89b69c2b068fc378daa952ba7f163c4a11628f55a4df523b3ef908290a45050565b60608160000361163057505060408051808201909152600181527f3000000000000000000000000000000000000000000000000000000000000000602082015290565b8160005b811561165a57806116448161213a565b91506116539050600a836121a1565b9150611634565b60008167ffffffffffffffff81111561167557611675611e11565b6040519080825280601f01601f19166020018201604052801561169f576020820181803683370190505b5090505b8415610cd9576116b460018361210b565b91506116c1600a866121b5565b6116cc906030612122565b60f81b8183815181106116e1576116e16121c9565b60200101907effffffffffffffffffffffffffffffffffffffffffffffffffffffffffffff1916908160001a90535061171b600a866121a1565b94506116a3565b60008281526002602052604090205473ffffffffffffffffffffffffffffffffffffffff166117d3576040517f08c379a000000000000000000000000000000000000000000000000000000000815260206004820152602e60248201527f45524337323155524953746f726167653a2055524920736574206f66206e6f6e60448201527f6578697374656e7420746f6b656e00000000000000000000000000000000000060648201526084016104fe565b600082815260066020908152604090912082516106b792840190611ba5565b6117fd848484611020565b611809848484846119b2565b610b22576040517f08c379a000000000000000000000000000000000000000000000000000000000815260206004820152603260248201527f4552433732313a207472616e7366657220746f206e6f6e20455243373231526560448201527f63656976657220696d706c656d656e746572000000000000000000000000000060648201526084016104fe565b60008181526002602052604090205460609073ffffffffffffffffffffffffffffffffffffffff16611949576040517f08c379a000000000000000000000000000000000000000000000000000000000815260206004820152602f60248201527f4552433732314d657461646174613a2055524920717565727920666f72206e6f60448201527f6e6578697374656e7420746f6b656e000000000000000000000000000000000060648201526084016104fe565b600061196060408051602081019091526000815290565b9050600081511161198057604051806020016040528060008152506119ab565b8061198a846115ed565b60405160200161199b9291906120ad565b6040516020818303038152906040525b9392505050565b600073ffffffffffffffffffffffffffffffffffffffff84163b15611b9a576040517f150b7a0200000000000000000000000000000000000000000000000000000000815273ffffffffffffffffffffffffffffffffffffffff85169063150b7a0290611a299033908990889088906004016121f8565b6020604051808303816000875af1925050508015611a82575060408051601f3d9081017fffffffffffffffffffffffffffffffffffffffffffffffffffffffffffffffe0168201909252611a7f91810190612241565b60015b611b4f573d808015611ab0576040519150601f19603f3d011682016040523d82523d6000602084013e611ab5565b606091505b508051600003611b47576040517f08c379a000000000000000000000000000000000000000000000000000000000815260206004820152603260248201527f4552433732313a207472616e7366657220746f206e6f6e20455243373231526560448201527f63656976657220696d706c656d656e746572000000000000000000000000000060648201526084016104fe565b805181602001fd5b7fffffffff00000000000000000000000000000000000000000000000000000000167f150b7a0200000000000000000000000000000000000000000000000000000000149050610cd9565b506001949350505050565b828054611bb190612017565b90600052602060002090601f016020900481019282611bd35760008555611c19565b82601f10611bec57805160ff1916838001178555611c19565b82800160010185558215611c19579182015b82811115611c19578251825591602001919060010190611bfe565b50611c25929150611c29565b5090565b5b80821115611c255760008155600101611c2a565b7fffffffff0000000000000000000000000000000000000000000000000000000081168114610e0e57600080fd5b600060208284031215611c7e57600080fd5b81356119ab81611c3e565b60005b83811015611ca4578181015183820152602001611c8c565b83811115610b225750506000910152565b60008151808452611ccd816020860160208601611c89565b601f017fffffffffffffffffffffffffffffffffffffffffffffffffffffffffffffffe0169290920160200192915050565b6020815260006119ab6020830184611cb5565b600060208284031215611d2457600080fd5b5035919050565b803573ffffffffffffffffffffffffffffffffffffffff81168114611d4f57600080fd5b919050565b60008060408385031215611d6757600080fd5b611d7083611d2b565b946020939093013593505050565b600080600060608486031215611d9357600080fd5b611d9c84611d2b565b9250611daa60208501611d2b565b9150604084013590509250925092565b600060208284031215611dcc57600080fd5b6119ab82611d2b565b60008060408385031215611de857600080fd5b611df183611d2b565b915060208301358015158114611e0657600080fd5b809150509250929050565b7f4e487b7100000000000000000000000000000000000000000000000000000000600052604160045260246000fd5b600067ffffffffffffffff80841115611e5b57611e5b611e11565b604051601f85017fffffffffffffffffffffffffffffffffffffffffffffffffffffffffffffffe0908116603f01168101908282118183101715611ea157611ea1611e11565b81604052809350858152868686011115611eba57600080fd5b858560208301376000602087830101525050509392505050565b600082601f830112611ee557600080fd5b6119ab83833560208501611e40565b600080600060608486031215611f0957600080fd5b611f1284611d2b565b9250602084013567ffffffffffffffff80821115611f2f57600080fd5b611f3b87838801611ed4565b93506040860135915080821115611f5157600080fd5b50611f5e86828701611ed4565b9150509250925092565b60008060008060808587031215611f7e57600080fd5b611f8785611d2b565b9350611f9560208601611d2b565b925060408501359150606085013567ffffffffffffffff811115611fb857600080fd5b8501601f81018713611fc957600080fd5b611fd887823560208401611e40565b91505092959194509250565b60008060408385031215611ff757600080fd5b61200083611d2b565b915061200e60208401611d2b565b90509250929050565b600181811c9082168061202b57607f821691505b602082108103612064577f4e487b7100000000000000000000000000000000000000000000000000000000600052602260045260246000fd5b50919050565b6000845161207c818460208901611c89565b845190830190612090818360208901611c89565b84519101906120a3818360208801611c89565b0195945050505050565b600083516120bf818460208801611c89565b8351908301906120d3818360208801611c89565b01949350505050565b7f4e487b7100000000000000000000000000000000000000000000000000000000600052601160045260246000fd5b60008282101561211d5761211d6120dc565b500390565b60008219821115612135576121356120dc565b500190565b60007fffffffffffffffffffffffffffffffffffffffffffffffffffffffffffffffff820361216b5761216b6120dc565b5060010190565b7f4e487b7100000000000000000000000000000000000000000000000000000000600052601260045260246000fd5b6000826121b0576121b0612172565b500490565b6000826121c4576121c4612172565b500690565b7f4e487b7100000000000000000000000000000000000000000000000000000000600052603260045260246000fd5b600073ffffffffffffffffffffffffffffffffffffffff8087168352808616602084015250836040830152608060608301526122376080830184611cb5565b9695505050505050565b60006020828403121561225357600080fd5b81516119ab81611c3e56fea2646970667358221220ffbc2040c7747fd15864f4aba98c564e03aac9c62741fb8ec4bdeb4fb2c1fc3464736f6c634300080d0033",
    "linkReferences": {}
  }
}